{
  "transactions": [
    {
      "hash": "0x188b1ea7d96e798cb7054a0c7610f49a6620c6f2c245787302a08ed7088a4604",
      "transactionType": "CREATE",
      "contractName": "Wallet",
      "contractAddress": "0x177E14f7548d8b1A14A17a64C815864B1C35456C",
      "function": null,
      "arguments": null,
      "transaction": {
        "type": "0x02",
        "from": "0xe176e8db59dcd3dd19f69386f8d6431de6dd5e50",
        "gas": "0x428b5",
        "value": "0x0",
        "data": "0x608060405234801561001057600080fd5b506102d5806100206000396000f3fe6080604052600436106100435760003560e01c806327e235e31461004f5780632e1a7d4d1461008e57806370a08231146100b0578063f340fa01146100e657600080fd5b3661004a57005b600080fd5b34801561005b57600080fd5b5061007c61006a366004610214565b60006020819052908152604090205481565b60405190815260200160405180910390f35b34801561009a57600080fd5b506100ae6100a9366004610244565b6100f9565b005b3480156100bc57600080fd5b5061007c6100cb366004610214565b6001600160a01b031660009081526020819052604090205490565b6100ae6100f4366004610214565b6101d4565b3360009081526020819052604090205481116101d157604051600090339083908381818185875af1925050503d8060008114610151576040519150601f19603f3d011682016040523d82523d6000602084013e610156565b606091505b50509050806101ab5760405162461bcd60e51b815260206004820152601c60248201527f45787465726e616c2063616c6c2072657475726e65642066616c736500000000604482015260640160405180910390fd5b33600090815260208190526040812080548492906101ca908490610273565b9091555050505b50565b6001600160a01b0381166000908152602081905260409020546101f890349061028c565b6001600160a01b03909116600090815260208190526040902055565b60006020828403121561022657600080fd5b81356001600160a01b038116811461023d57600080fd5b9392505050565b60006020828403121561025657600080fd5b5035919050565b634e487b7160e01b600052601160045260246000fd5b818103818111156102865761028661025d565b92915050565b808201808211156102865761028661025d56fea2646970667358221220cea60ef9b283f9e9782b235b7bb575eafab0efed6ed36d58af387f283d92b63e64736f6c63430008150033",
        "nonce": "0x128",
        "accessList": []
      },
      "additionalContracts": [],
      "isFixedGasLimit": false
    },
    {
      "hash": "0x467f00b4ec032a4a71e8c04dba54a294878dd31ffc04251734f3a8eafc566131",
      "transactionType": "CALL",
      "contractName": "Wallet",
      "contractAddress": "0x177E14f7548d8b1A14A17a64C815864B1C35456C",
      "function": "deposit(address)",
      "arguments": [
        "0xE176E8Db59dCd3dD19F69386f8D6431De6Dd5e50"
      ],
      "transaction": {
        "type": "0x02",
        "from": "0xe176e8db59dcd3dd19f69386f8d6431de6dd5e50",
        "to": "0x177e14f7548d8b1a14a17a64c815864b1c35456c",
        "gas": "0xeddc",
        "value": "0x16345785d8a0000",
        "data": "0xf340fa01000000000000000000000000e176e8db59dcd3dd19f69386f8d6431de6dd5e50",
        "nonce": "0x129",
        "accessList": []
      },
      "additionalContracts": [],
      "isFixedGasLimit": false
    }
  ],
  "receipts": [
    {
      "transactionHash": "0x188b1ea7d96e798cb7054a0c7610f49a6620c6f2c245787302a08ed7088a4604",
      "transactionIndex": "0xd",
      "blockHash": "0xa6d894f8580fa1c22565b89565eed227c6ae14607758382f32b4facf254badc2",
      "blockNumber": "0x4c7af8",
      "from": "0xE176E8Db59dCd3dD19F69386f8D6431De6Dd5e50",
      "to": null,
      "cumulativeGasUsed": "0x5ca724",
      "gasUsed": "0x33332",
      "contractAddress": "0x177E14f7548d8b1A14A17a64C815864B1C35456C",
      "logs": [],
      "status": "0x1",
      "logsBloom": "0x00000000000000000000000000000000000000000000000000000000000000000000000000000000000000000000000000000000000000000000000000000000000000000000000000000000000000000000000000000000000000000000000000000000000000000000000000000000000000000000000000000000000000000000000000000000000000000000000000000000000000000000000000000000000000000000000000000000000000000000000000000000000000000000000000000000000000000000000000000000000000000000000000000000000000000000000000000000000000000000000000000000000000000000000000000000",
      "type": "0x2",
      "effectiveGasPrice": "0xcaa49e58e"
    },
    {
      "transactionHash": "0x467f00b4ec032a4a71e8c04dba54a294878dd31ffc04251734f3a8eafc566131",
      "transactionIndex": "0x29",
      "blockHash": "0xa6d894f8580fa1c22565b89565eed227c6ae14607758382f32b4facf254badc2",
      "blockNumber": "0x4c7af8",
      "from": "0xE176E8Db59dCd3dD19F69386f8D6431De6Dd5e50",
      "to": "0x177E14f7548d8b1A14A17a64C815864B1C35456C",
      "cumulativeGasUsed": "0x95c194",
      "gasUsed": "0xac35",
      "contractAddress": null,
      "logs": [],
      "status": "0x1",
      "logsBloom": "0x00000000000000000000000000000000000000000000000000000000000000000000000000000000000000000000000000000000000000000000000000000000000000000000000000000000000000000000000000000000000000000000000000000000000000000000000000000000000000000000000000000000000000000000000000000000000000000000000000000000000000000000000000000000000000000000000000000000000000000000000000000000000000000000000000000000000000000000000000000000000000000000000000000000000000000000000000000000000000000000000000000000000000000000000000000000",
      "type": "0x2",
      "effectiveGasPrice": "0xcaa49e58e"
    }
  ],
  "libraries": [],
  "pending": [],
  "returns": {},
  "timestamp": 1704269975,
  "chain": 11155111,
  "multi": false,
  "commit": "5c90382"
}